:020000040800F2
:100000007023002045160008310200083302000862
:10001000370200083B0200083F0200080000000011
:100020000000000000000000000000004302000883
:1000300045020008000000004702000849020008CD
:100040005F1600085F1600085F1600085F160008BC
:100050005F1600085F1600085F1600085F160008AC
:100060005F1600085F1600085F1600085F1600089C
:100070005F1600085F1600085F1600085F1600088C
:100080005F1600085F1600085F1600085F1600087C
:100090005F1600085F1600085F160008F30C0008E2
:1000A0005F1600085F1600085F1600085F1600085C
:1000B0005F160008A90D00085F1600085F1600080B
:1000C0005F1600085F1600085F1600085F1600083C
:1000D0005F160008810E00085F1600085F16000812
:1000E0005F1600085F1600085F1600085F1600081C
:1000F0005F1600085F1600085F1600085F1600080C
:100100005F1600085F1600085F1600085F160008FB
:100110005F1600085F1600085F1600085F160008EB
:100120005F1600085F1600085F1600085F160008DB
:10013000DFF80CD003F0A6FF004800474501000897
:100140007023002000F0E2FE4FF4A06002F010F8EF
:100150004FF4612000F048FE00F091FC00221146AF
:100160001D2000F0BBFB012200212F2000F0B6FB78
:1001700002220021412000F0B1FB03220021532084
:1001800000F0ACFB042202211D2000F0A7FB052299
:1001900002212F2000F0A2FB03220221412000F0C7
:1001A0009DFB06220221532000F098FB0722042128
:1001B0000B2000F093FB082204211D2000F08EFB91
:1001C00017A204212F2000F0C6FA092204214120A1
:1001D00000F084FB0A220421532000F07FFB0B2255
:1001E0000421652000F07AFB0EA20621192000F000
:1001F000B2FA4FF47A7000F0C6FE4FF47A7000F055
:10020000C2FE00F013F900F0E3FC00F037F900F053
:100210004BFD4721182000F09BFD00BFFEE70000CA
:100220003A000000323031382F31322F30370000A1
:10023000704700BFFEE700BFFEE700BFFEE700BF5C
:10024000FEE7704770477047704700000CB500200C
:10025000019000906C48006840F480306A49086062
:1002600000BF6948006800F4003000900198401C0D
:100270000190009818B90198B0F5A06FF1D16248CB
:10028000006800F4003010B10120009001E000206F
:1002900000900098012843D15C48006840F01000AD
:1002A0005A4908600846006820F0030008600846C4
:1002B000006840F0020008605348406852494860B6
:1002C0000846406848600846406840F480604860DE
:1002D0000846406820F47C1048600846406840F4B6
:1002E000E81048600846006840F08070086000BF71
:1002F0004548006800F000700028F9D04248406886
:1003000020F00300404948600846406840F0020081
:10031000486000BF3C48406800F00C000828F9D154
:100320000CBD10B5FFF792FF10BD10B53648006840
:1003300040F00100344908600846406834490840EC
:100340003149486008460068324908402E49086033
:100350000846006820F4802008600846406820F4C1
:10036000FE0048604FF41F008860FFF7DAFF4FF08F
:1003700000602949086010BD10B50021002000224E
:10038000214B5B6803F00C0121B1042906D0082938
:1003900028D107E0214B224C236027E01F4B204C43
:1003A000236023E0184B5B6803F47010164B5B6806
:1003B00003F48032022303EB904022B9194B4343EC
:1003C000174C23600DE0104B5B6803F4003323B13E
:1003D000144B4343124C236003E0104B4343104C37
:1003E000236003E00D4B0E4C236000BF00BF064BA3
:1003F0005B68C3F303130C4CE15C094B1B68CB40F7
:10040000074C236010BD0000001002400020024095
:100410000000FFF8FFFFF6FE08ED00E000127A0092
:100420000000002000093D000400002008B5012163
:10043000242001F035FC4FF48470ADF8000010204A
:100440008DF8030003208DF802006946094801F089
:100450006BF94FF48471074801F015FA0420ADF8E8
:1004600000006946044801F05FF90421024801F0E8
:1004700008FA08BD000801400014014000B587B02B
:1004800001214FF4017001F00BFC4FF4004001F02A
:100490006BFB0220ADF8040000208DF8070001A9D5
:1004A000234801F041F9234801F0D0FE00200290DA
:1004B0008DF80C008DF80D004FF4602004900020A2
:1004C000059001208DF8180002A91A4801F0E5FEF8
:1004D0000121184801F00DFF164801F02CFF00BF64
:1004E000144801F02DFF0028FAD1124801F032FF24
:1004F00000BF104801F033FF0028FAD107B000BD5B
:1005000010B504460723012221460A4801F05DFF89
:100510000121084801F02DFF00BF0221054802F02B
:1005200099F80028F9D0034801F0B6FF10BD00008B
:10053000000801400024014070B504460E4626B173
:100540000121FE4801F09DF903E00121FB4801F083
:100550009AF94FF40051F94801F095F9002519E096
:100560004FF48061F54801F08EF904F0800020B16D
:100570000821F24801F085F903E00821EF4801F075
:1005800082F94FF48061ED4801F07BF96006040EBA
:10059000681CC5B2082DE3DB4FF40051E74801F0B9
:1005A00070F90121E54801F06CF970BD70B50446A1
:1005B0000D4605F1B001C8B20021FFF7BDFF1021C3
:1005C00041EA14100021FFF7B7FF04F00F0141F0DA
:1005D00001000021FFF7B0FF70BD10B500218D2094
:1005E000FFF7AAFF00211420FFF7A6FF0021AF208C
:1005F000FFF7A2FF10BD10B500218D20FFF79CFF73
:1006000000211020FFF798FF0021AE20FFF794FF94
:1006100010BD70B5002419E004F1B001C8B200218A
:10062000FFF78AFF00210846FFF786FF0021102010
:10063000FFF782FF002505E001210020FFF77CFF86
:10064000681CC5B2802DF7DB601CC4B2082CE3DB4C
:1006500070BD2DE9F04107460E4690460025002466
:10066000A8F12000C5B27F2F02DD0027B01CC6B262
:1006700031463846FFF79AFF002408E004EB0511E5
:10068000AF4A505C0121FFF757FF601CC4B2082C31
:10069000F4DB701CC1B23846FFF788FF002409E084
:1006A00004EB05110831A64A505C0121FFF744FF15
:1006B000601CC4B2082CF3DBBDE8F08110B5024623
:1006C000012000E050430B1EA1F10104E1B2F9D179
:1006D00010BD2DE9FF5F074691461D460E9E4FF067
:1006E000000A002433E0281B401EC1B20A20FFF795
:1006F000E5FFB9FBF0F00A21B0FBF1F201FB1208B3
:10070000BAF1000F13D1681EA04210DDB8F1000F3E
:100710000BD1B34606EBDB71491001FB0471C8B283
:1007200020220199FFF795FF0FE04FF0010AB34631
:1007300006EBDB71491001FB0471C8B208F130010E
:10074000CAB20199FFF785FF00BF601CC4B2AC427A
:10075000C9DBBDE8FF9F2DE9F04104460F46154671
:1007600000260EE0AA5D39462046FFF772FF04F12D
:100770000800C4B2782C02DD0024B81CC7B2701C7B
:10078000C6B2A85D0028EDD1BDE8F0812DE9F041A9
:1007900007460E469046002500244046B8F1350F26
:1007A0002CD012DC312821D008DC20281AD02328B4
:1007B00038D02A2834D0302836D115E0322817D046
:1007C000332817D034282FD116E036380F282BD2F3
:1007D000DFE800F016181A1C2A2A2A2A2A2A2A1EBA
:1007E00020222400002521E001251FE002251DE034
:1007F00003251BE0042519E0052517E0062515E073
:10080000072513E0082511E009250FE00A250DE072
:100810000B250BE00C2509E00D2507E00E2505E072
:100820000F2503E0102501E0112500BF00BF7F2F39
:1008300002DD0027B01CC6B231463846FFF7B6FECF
:10084000002408E03F4A02EB8511085D0121FFF713
:1008500073FE601CC4B2102CF4DB701CC1B23846AD
:10086000FFF7A4FE00240BE0012101EB8501354ACE
:1008700002EB0111085D0121FFF75EFE601CC4B2AE
:10088000102CF1DBB01CC1B23846FFF78FFE0024FC
:100890000BE0022101EB85012A4A02EB0111085D00
:1008A0000121FFF749FE601CC4B2102CF1DBF01CE3
:1008B000C1B23846FFF77AFE00240BE0032101EBBA
:1008C0008501204A02EB0111085D0121FFF734FE8A
:1008D000601CC4B2102CF1DBBDE8F0812DE9F041C1
:1008E00080460E461546002731464046FFF75EFE1D
:1008F00000240AE0144A02EB8511085D0121FFF78C
:100900001BFE781CC7B2601CC4B2102CF2DB701C3A
:10091000C1B24046FFF74AFE00240CE06900491CC2
:10092000094A02EB4111085D0121FFF705FE781C21
:10093000C7B2601CC4B2102CF0DB07E0001001400D
:1009400016440008064A0008864E0008BDE8F081FB
:100950002DE9F04104460F46154600260EE0AA5D3B
:1009600039462046FFF712FF04F11000C4B2702C84
:1009700002DD0024381DC7B2701CC6B2A85D002875
:10098000EDD1BDE8F08170B5002412E021460020D1
:10099000FFF70CFE002508E08B4901EBC411485D10
:1009A0000121FFF7C9FD681CC5B2802DF4DB601C76
:1009B000C4B2082CEADB70BD01460020092918D218
:1009C000DFE801F00507090B0D0F111315000020DA
:1009D00010E001200EE003200CE007200AE00F20C9
:1009E00008E01F2006E03F2004E07F2002E0FF2017
:1009F00000E000BF00BF704770B505460C46802C74
:100A000000DB8024012329E0B4EBC30F07DBFF20C8
:100A1000C3F108016C4A02EBC11148551CE0581E95
:100A2000B4EBC00F11DD2646E11704EB5171C9107C
:100A3000A4EBC101C8B2FFF7BFFFC043C3F1080177
:100A4000614A02EBC111485506E00020C3F10801DC
:100A50005D4A02EBC1114855581CC3B2082BD3DDC7
:100A600070BD70B504460D46164605E03146204679
:100A7000FFF7C2FF601CC4B2AC42F7DB70BD08B523
:100A80000121102001F00CF942F20D40ADF80000F8
:100A900010208DF8030003208DF8020069464B48B2
:100AA00000F042FE42F20D41484800F0EAFE042107
:100AB000464800F0E6FE642000F065FA0421434851
:100AC00000F0E1FE642000F05EFA04213F4800F0EF
:100AD000D8FE0021AE20FFF72FFD00210846FFF7CA
:100AE0002BFD00211020FFF727FD00214020FFF7FC
:100AF00023FD00218120FFF71FFD0021CF20FFF7FC
:100B00001BFD0021A120FFF717FD0021C820FFF7E2
:100B100013FD0021A620FFF70FFD0021A820FFF7FD
:100B20000BFD00213F20FFF707FD0021D320FFF739
:100B300003FD00210846FFF7FFFC0021D520FFF749
:100B4000FBFC00218020FFF7F7FC0021D920FFF7F4
:100B5000F3FC0021F120FFF7EFFC0021DA20FFF782
:100B6000EBFC00211220FFF7E7FC0021DB20FFF760
:100B7000E3FC00214020FFF7DFFC00212020FFF7ED
:100B8000DBFC00210220FFF7D7FC00218D20FFF7BE
:100B9000D3FC00211420FFF7CFFC0021A420FFF795
:100BA000CBFC0021A620FFF7C7FC0021AF20FFF7F8
:100BB000C3FC0021AF20FFF7BFFCFFF72AFD002197
:100BC0000846FFF7F3FC08BD541000200010014058
:100BD00008B50121142001F063F80121564800F006
:100BE00074FE4FF40040ADF8000048208DF803007B
:100BF0006946524800F098FD2020ADF800004820DA
:100C00008DF8030069464E4800F08EFD08BD10B512
:100C1000044614B101204B4908704A48007868B373
:100C20002021474800F013FE58B14FF400414348DB
:100C300000F00DFE28B10121404800F008FE012817
:100C40001CD10A2000F09FF900203E4908702021A5
:100C50003B4800F0FCFD08B9012010BD4FF40041F5
:100C6000364800F0F4FD08B90220F6E701213348C8
:100C700000F0EDFD012815D10320EEE720213048DA
:100C800000F0E5FD01280DD1C1032C4800F0DFFD87
:100C9000012807D10121294800F0D9FD10B9012010
:100CA000284908700020D8E70EB50121084600F059
:100CB000F7FF0521022000F04DFE202001900020CA
:100CC0008DF808000C208DF8090001208DF80A002D
:100CD00001A802F0FFFB17208DF8000001208DF81D
:100CE00001008DF802008DF80300684601F045FA16
:100CF0000EBD10B50A2000F046F92021104800F082
:100D0000A6FDA0B900BF20210D4800F0A0FD0028DD
:100D1000F9D00D4800F0BEFA0C48006808B901206F
:100D200000E00020094908600A2000F02CF920208A
:100D300002F047FC10BD0000000230000008014036
:100D400000100140140000203B100020A0012142AF
:100D50007FB505460C460121022000F0AEFFADF83C
:100D60000850ADF804400020ADF80A00ADF80600C8
:100D700001A9144801F066FD01221146114802F054
:100D8000D8F81D208DF8000002208DF801008DF8A4
:100D9000020001208DF80300684601F0EEF9012100
:100DA000084802F0ABF87FBD10B50121054802F0FC
:100DB0006EFB30B10121034802F07AFB024800F0DB
:100DC0003FFB10BD000400403B10002000BF7047F7
:100DD00000BF4A4A128802F04002002AF9D0C2B28B
:100DE000464B1B1D1A80704710B586B00446012182
:100DF00044F2040000F054FF4FF40070ADF814000A
:100E000003208DF8160018208DF8170005A93C481E
:100E100000F08AFC4FF48060ADF8140004208DF8D7
:100E2000170005A9364800F07FFC25208DF800004A
:100E300003208DF801008DF8020001208DF80300D9
:100E4000684601F09AF901940020ADF80800ADF869
:100E50000A00ADF80C00ADF810000C20ADF80E0043
:100E600001A9264800F0C3FF012240F22551234882
:100E700001F055F80121214801F045F806B010BDF8
:100E800010B540F225511D4801F02EF910B31B4852
:100E900001F0AAF8C4B21B48008800F40040C8B9A9
:100EA0001848008800F4804060B10A2C03D000206C
:100EB0001449088020E01348008840F4004011499C
:100EC000088019E00D2C06D10E48008840F48040BF
:100ED0000C49088010E00B480088C0F30D000A4957
:100EE0000C5408480088401C0649088008460088C1
:100EF000C72801DD0020088010BD00000038014037
:100F0000000801401C0000205414002010B56FF0B0
:100F1000040001F07CF92E4800682E49B0FBF1F086
:100F20002D4908700846007800EB4001C1EBC01065
:100F30004FF6FF7101EAC0002849088010BD014644
:100F4000254A12784A434FF0E0235A6100229A6101
:100F50001A46126942F001021A6100BF4FF0E02206
:100F6000106900F001021AB100F48032002AF5D0B5
:100F70004FF0E022126922F001024FF0E0231A61E3
:100F800000229A6170470146144A12884A434FF082
:100F9000E0235A6100229A611A46126942F0010266
:100FA0001A6100BF4FF0E022106900F001021AB18F
:100FB00000F48032002AF5D04FF0E022126922F0CE
:100FC00001024FF0E0231A6100229A61704700008D
:100FD0000000002000127A001E00002020000020E7
:100FE00010B502460B4600210020114606E053F8DA
:100FF0002140844201D953F82100491C141DA1420B
:10100000F5D310BD10B50346002000BF05E051F830
:1010100020409C4200D102E0401C9042F7D300BF28
:1010200010BD00B500204F49086048608860C86066
:101030004D49086048608860C8604C493420FFF71B
:10104000CFFF4949086049493920FFF7C9FF4649A0
:10105000486046493F20FFF7C3FF43498860434942
:101060004620FFF7BDFF4049C86040495B20FFF7BD
:10107000B7FF3C4908603D496520FFF7B1FF39499A
:1010800048603A497020FFF7ABFF3649886037491E
:101090007C20FFF7A5FF3349C86000BD10B50246AC
:1010A0000B4600214C1E00BF10E052F82100984270
:1010B00002D1601C44B207E052F821000F2802D987
:1010C0004FF0FF3010BD00BF481C41B20429ECDBDB
:1010D0002046F7E730B500240025002024490860A9
:1010E00024490860FFF79DFF1F490020FFF778FFA4
:1010F000204908601B490020FFF772FF1C49086067
:10110000084600680F2801D2E01E30BD194800686B
:101110000F2802D26FF00300F7E716480168124863
:10112000FFF7BCFF10B14FF0FF30EEE71048016849
:101130000C48FFF7B3FF10B16FF00100E5E70422A0
:1011400008490B480068FFF75DFFC4B20422064956
:1011500008480068FFF756FFC5B2074800EB840057
:101160004057D2E71C1500202C1500203C1D002004
:1011700034000020380000202400002010B5014673
:10118000486801230022012206E051F822408442EF
:1011900001D951F82200521C9A42F6DB10BD2DE90C
:1011A000F04F89B000245DE0B54830F824000FFA14
:1011B00080F9B34850F824004FEA204A484602F02C
:1011C0002FFE80464FF0874102F04BFD07464FF05F
:1011D0008E4102F078FD0546504602F021FE804621
:1011E0004FF0874102F03DFD07464FF08E4102F07F
:1011F0006AFD06463146304602F033FD294602902C
:10120000284602F02EFD0190029902F0D2FC0390D4
:1012100002F023FECDE9040102F0C3FF0022994B46
:10122000CDE9060102F08DFD074602F029FE834656
:101230005CB94FF08E41584602F013FD074602F0AC
:10124000F8FD914941F824000AE04FF08F415846DB
:1012500002F007FD074602F0ECFD8B4941F824003F
:10126000601C84B2802C9FDB09B0BDE8F08F10B504
:10127000FFF7CFF985480068C0438549C1F8880168
:101280008448D0F8A001C043834908600020834906
:10129000088010BD10B50446207830B1012805D073
:1012A00002280FD004282ED122E02DE000207A4918
:1012B00014390860472140F22510FFF749FD02204C
:1012C000207021E00120744914390860002174481D
:1012D00001F014FE04202070FFF7C9FF71A2032162
:1012E0001920FFF738FA40F2DC50FFF74CFE0BE014
:1012F00047211820FFF72CFD0020674914390860AA
:101300000120207000E000BF00BFFFF782F900203D
:1013100010BD10B55D480068C0435D49C1F8880143
:1013200001205C49C1F8A0015C480088FF280EDC60
:101330000120FFF7E5F800045D49584A128841F89A
:10134000220056480088401C5449088047E04FF46A
:10135000807257494A4802F03DF9FFF720FF00F03C
:10136000CEF8544A00210846FFF7F2FAFFF7B2FE22
:1013700051490870084690F90000002803DA4FA090
:1013800002F0E0FE28E04E4890F90000072806DB56
:101390002020484908700020487049490870484892
:1013A00090F90000072817DA45480078401C40B241
:1013B00043490870404890F900003E49404A92F97C
:1013C0000020885400213B4A3D4890F90000401C11
:1013D00011543220FFF7D7FD00203049088000204B
:1013E00010BD10B50120294908602A48D0F8A00195
:1013F000C0432849C1F8A00128480088FF280EDC16
:101400000120FFF77DF800042949244A128841F899
:10141000220022480088401C204908800EE04FF43A
:1014200080722349164802F0D5F8FFF7B8FE00F0A5
:1014300079F800F047F8002018490880002010BD16
:1014400070B504460025207830B1012806D0022866
:1014500008D004280ED109E000250DE0FFF7C1FFF8
:10146000C5B209E0FFF755FFC5B205E0FFF7FFFE83
:10147000C5B201E0002500BF00BF68B270BD00002A
:101480003C190020000070403C1D00208881224251
:101490000080224200002142A00121423810002099
:1014A0000004004046756E6374696F6E3A33000045
:1014B0003C1500202E1000202C1000202E000000D3
:1014C0002D10002070B50224002510E000212046D8
:1014D000FFF792FA554B13F81520631DD9B2631C20
:1014E000D8B2FFF7BEFA601DC4B2681CC5B2192D90
:1014F000ECDBFFF748FA3220FFF745FD70BD10B571
:10150000012407E04A4810F824102046FFF774FA37
:10151000601CC4B2802CF5DBFFF735FA0A20FFF718
:1015200032FD10BD3FB543A53CCD8DE83C00002009
:1015300008E03F4B421C33F822203C4B23F810209C
:10154000421CD0B20C28F4DB00200CE01DF8001087
:10155000374A32F8212093B2344C00F10C0224F8BF
:101560001230421CD0B20F28F0DB00205BE02F4A83
:1015700032F8102022B902222C4B23F8102050E020
:101580002A4A32F81020052A0CDA284A32F81020AC
:10159000002A07DD254A32F81020D21D234B23F8FC
:1015A00010203EE0214A32F81020052A0CDB1F4AA9
:1015B00032F810200A2A07DA1C4A32F81020521D8D
:1015C0001A4B23F810202CE0184A32F810200A2A6F
:1015D0000CDB164A32F810200F2A07DA134A32F8C9
:1015E0001020121D114B23F810201AE00F4A32F878
:1015F0001020402A04DB3F220C4B23F8102010E07F
:101600000A4A32F81020372A0BDB084A32F8102039
:101610003F2A06DC054A32F81020083A034B23F82B
:101620001020421CD0B21928A1DB3FBD3C1F002076
:101630003C1D00200D1013171A1D20262D33404D80
:101640005A7300000648804706480047FEE7FEE759
:10165000FEE7FEE7FEE7FEE7FEE7FEE7FEE7FEE762
:101660002B0300083101000810B50446CC48844221
:1016700008D10121042000F02DFB0021042000F0FE
:1016800029FB46E0C748844208D10121082000F028
:1016900021FB0021082000F01DFB3AE0C2488442F3
:1016A00008D10121102000F015FB0021102000F0CE
:1016B00011FB2EE0BD48844208D10121202000F01A
:1016C00009FB0021202000F005FB22E0B8488442FD
:1016D00008D10121402000F0FDFA0021402000F057
:1016E000F9FA16E0B348844208D10121802000F0C5
:1016F000F1FA0021802000F0EDFA0AE0AE488442C1
:1017000007D10121801500F0E5FA0021A01500F0B5
:10171000E1FA10BD10B50121084600F0DBFA002106
:10172000012000F0D7FA10BD2DE9F0410246002556
:101730000026002000230024002791F803C00CF0AD
:101740000F0591F803C00CF0100CBCF1000F03D092
:1017500091F802C04CEA050591F800C0BCF1000FF9
:1017600031D0146800202BE04FF0010C0CFA00F38C
:10177000B1F800C00CEA03069E4220D183004FF06E
:101780000F0C0CFA03F7BC4305FA03FC4CEA040403
:1017900091F803C0BCF1280F06D14FF0010C0CFAF0
:1017A00000FCC2F814C00AE091F803C0BCF1480F75
:1017B00005D14FF0010C0CFA00FCC2F810C0401C1F
:1017C0000828D1D31460B1F800C0BCF1FF0F34DD9C
:1017D000546800202EE000F1080C4FF0010808FAD0
:1017E0000CF3B1F800C00CEA03069E4221D183003D
:1017F0004FF00F0C0CFA03F7BC4305FA03FC4CEA5C
:10180000040491F803C0BCF1280F05D100F1080CC5
:1018100008FA0CF8C2F8148091F803C0BCF1480F24
:1018200007D100F1080C4FF0010808FA0CF8C2F8D3
:101830001080401C0828CED35460BDE8F0814FF6DC
:10184000FF710180022181700421C170704702463E
:10185000002093680B400BB1012000E0002070478E
:101860000146886880B2704702460020D3680B406A
:101870000BB1012000E0002070470146C86880B22B
:10188000704701617047416170470AB1016100E032
:1018900041617047C16070474FF480320A438261F2
:1018A0008161826182698269704702460020434BF0
:1018B00018684FF68073184040EA021008433F4B07
:1018C000186070473E49C8617047F0B50A4600236A
:1018D00000240021002500F00046B6F1004F02D19F
:1018E000364EF16901E0354E7168C0F3034583B2AD
:1018F00000F44016B6F5401F08D121F070612F4E5C
:10190000766826F070662D4F7E6012E000F4801637
:10191000B6F5801F06D1032606FA05F4A14341F06F
:10192000706106E0460D360103FA06F6B14341F058
:10193000706122B1460D360103FA06F6314300F01C
:101940000046B6F1004F02D11C4EF16101E01B4E82
:101950007160F0BD30B500228B071C0F0F2303FA16
:1019600004F2164B08338C1053F824309343134C75
:1019700008348D1044F8253023468C1053F8243059
:101980008C07240F00FA04F423430C4C08348D1008
:1019900044F8253030BD0A49DC310860704700004A
:1019A00000080140000C01400010014000140140FB
:1019B00000180140001C01400020014000000140CF
:1019C00000002042DF48006840F00100DD49086067
:1019D00008464068DC490840DA4948600846006823
:1019E000DA490840D74908600846006820F480209A
:1019F00008600846406820F4FE0048604FF41F006D
:101A000088607047CF49096821F48031CD4A116060
:101A10001146096821F480211160B0F5803F03D0A0
:101A2000B0F5802F0ED106E0C649096841F4803137
:101A3000C44A116007E0C349096841F4A021C14AC2
:101A4000116000E000BF00BF704710B501460022E2
:101A5000002300204A11012A02D1BA4C236806E073
:101A6000022A02D1B74C236A01E0B64C636A01F046
:101A70001F02012494401C400CB1012000E0002012
:101A800010BD38B5002000900024002500BF312093
:101A9000FFF7DBFF05460098401C00900098B0F56A
:101AA000A06F01D0002DF2D03120FFF7CEFF08B19A
:101AB000012400E00024204638BD01460020A14A50
:101AC000106820F0F80040EAC10010607047A0499B
:101AD00008607047024600209A4B586820F47C103A
:101AE00042EA01031843974B5860704798490866CB
:101AF000704701460020934A506820F003000843D5
:101B0000506070478F48406800F00C0070470146F5
:101B100000208C4A506820F0F00008435060704765
:101B200001460020874A506820F4E0600843506076
:101B3000704701460020834A506820F4605040EA14
:101B4000C1005060704729B17E4A527A02437D4BF2
:101B50005A7204E07B4A527A82437A4B5A72704737
:101B60007B49D8310860704701460020754A5068AB
:101B700020F440400843506070470021714A2032F1
:101B80001170704A82F82010012802D004280AD16E
:101B900004E001216B4A2032117005E00521694AF9
:101BA0002032117000E000BF00BF70476949086033
:101BB00070476449096A0143624A11627047654986
:101BC00044390860704730B500210022002400230A
:101BD0005C4D6D6805F00C0121B1042905D0082980
:101BE00023D105E05C4D056022E05B4D05601FE000
:101BF000544D6D6805F47012524D6D6805F48034D3
:101C0000022505EB92421CB9544D554305600BE08B
:101C10004C4D6D6805F400351DB1504D55430560C0
:101C200002E04D4D5543056002E04B4D056000BF9D
:101C300000BF444D6D6805F0F0010909484D6B5C2B
:101C40000568DD4045603F4D6D6805F4E061090AB7
:101C5000434D6B5C4568DD4085603A4D6D6805F429
:101C60006051C90A3E4D6B5C4568DD40C560354D2D
:101C70006D6805F44041890B3A4D6B5CC568B5FB56
:101C8000F3F5056130BD29B12E4A526902432D4B4F
:101C90005A6104E02B4A526982432A4B5A617047C9
:101CA00029B1284A92690243264B9A6104E0254AE9
:101CB00092698243234B9A61704729B1214AD269C4
:101CC0000243204BDA6104E01E4AD26982431D4B75
:101CD000DA61704729B11B4AD2680243194BDA60B6
:101CE00004E0184AD2688243164BDA60704729B183
:101CF000144A12690243134B1A6104E0114A126933
:101D00008243104B1A61704712494039086070478E
:101D10000F49C86470470B49C87170470948406A49
:101D200040F0807007494862704701460020054A2C
:101D300092680A400AB1012000E000207047014982
:101D400088727047001002400000FFF8FFFFF6FEA7
:101D5000000042428004424200127A0000093D0025
:101D60003C1000204C10002010B50446FB48844273
:101D700009D101218803FFF7ADFF00214FF4804016
:101D8000FFF7A8FF32E0F648844209D10121480458
:101D9000FFF7ADFF00214FF40030FFF7A8FF25E06B
:101DA000F048844209D101218804FFF7A0FF0021F7
:101DB0004FF48020FFF79BFF18E0EB48844209D1E5
:101DC0000121C804FFF793FF00214FF40020FFF723
:101DD0008EFF0BE0E548844208D101210805FFF79A
:101DE00086FF00214FF48010FFF781FF10BD2DE921
:101DF000F04786B005460E460024A24600BFA14625
:101E00000027B08900B100BF2F462C8A4CF6FF7026
:101E10000440F08804432C82AC894EF6F310044051
:101E2000B08831890843718908430443AC81AC8A86
:101E30004FF6FF400440B0890443AC8201A8FFF78D
:101E4000C2FEC648874202D1DDF810A001E0DDF8ED
:101E50000CA0A88900F4004040B10AEBCA0000EBD6
:101E60000A1031684900B0FBF1F807E00AEBCA003C
:101E700000EB0A1031688900B0FBF1F86420B8FB70
:101E8000F0F004012009642101FB1089A88900F405
:101E9000004040B1322000EBC900B0FBF1F000F08F
:101EA0000700044308E0322000EB09106421B0FB76
:101EB000F1F000F00F0004432C8106B0BDE8F0877C
:101EC0004FF41651016000218180C18001810C21F5
:101ED000418100218181704710B502460020108A9F
:101EE0004FF2FF0318400B884C8823438C88234310
:101EF000CC8823431843108210BD0021018041800B
:101F00008180C180704721B1828942F40052828170
:101F100004E082894DF6FF731A4082817047F0B564
:101F20000346002400260025002040F66A17B94227
:101F300000D100BF1846C1F3421401F01F0601276B
:101F400007FA06F5012C01D10C3004E0022C01D176
:101F5000103000E014301AB107682F43076002E028
:101F60000768AF430760F0BD1AB1838A0B438382D1
:101F700002E0838A8B4383827047028A4FF6F073B4
:101F80001A400282028A0A430282704782894FF213
:101F9000FF731A40828182890A438281704721B18E
:101FA000828942F00202828104E082894FF6FD7349
:101FB0001A4082817047028A4FF6DF731A4002820C
:101FC000028A0A430282704721B1028A42F48042A7
:101FD000028204E0028A4BF6FF731A4002827047C5
:101FE000C1F308028280704701468888C0F3080068
:101FF0007047818941F0010181817047028BD2B223
:102000000283028B42EA012202837047028B02F4B0
:102010007F420283028B0A430283704721B1828A86
:1020200042F02002828204E0828A4FF6DF731A4077
:102030008282704721B1828A42F01002828204E0DB
:10204000828A4FF6EF731A408282704721B1828AEA
:1020500042F00802828204E0828A4FF6F7731A4047
:102060008282704721B1828942F40042828103E07A
:102070008289C2F30E028281704721B1828A42F4C2
:102080000062828204E0828A4FF2FF731A408282E9
:102090007047828A4FF6FB731A408282828A0A4313
:1020A0008282704721B1828A42F00202828204E079
:1020B000828A4FF6FD731A408282704702460020E2
:1020C000B1F5007F00D100BF13880B400BB1012098
:1020D00000E00020704701F40072B2F5007F00D1EB
:1020E00000BFCA430280704770B502460024002337
:1020F0000025002040F66A16B14200D100BFC1F3AE
:10210000421501F01F03012606FA03F3012D02D147
:102110009689334006E0022D02D1168A334001E051
:10212000968A33400C12012606FA04F416883440CD
:1021300013B10CB1012000E0002070BD10B50022E9
:10214000002340F66A14A14200D100BF0A12012404
:102150009440A3B2DC43048010BD0000003801406D
:102160000044004000480040004C00400050004047
:1021700031490143314A1160704770B50021002395
:102180000F22C47804B32D4C246804F4E064C4F531
:10219000E064210AC1F10403CA40447804FA03F15F
:1021A0008478144021430901254C0678A155047810
:1021B00004F01F050124AC4005786D11AD0005F158
:1021C000E025C5F8004109E0047804F01F0501246A
:1021D000AC401C4D0678761145F8264070BD1A4A71
:1021E0000A400243154B1B1F1A60704739B1134A4E
:1021F000121D12680243114B1B1D1A6006E00F4AA4
:10220000121D126882430D4B1B1D1A607047042873
:1022100008D14FF0E021096941F004014FF0E022BC
:10222000116107E04FF0E021096921F004014FF04E
:10223000E0221161704700000000FA050CED00E09B
:1022400000E400E080E100E080FFFF1F10B50446DD
:10225000FA48844208D101214015FFF73BFD0021D7
:102260006015FFF737FD17E0F548844208D10121DA
:102270000015FFF72FFD00212015FFF72BFD0BE0C8
:10228000F048844208D10121C803FFF723FD002153
:102290004FF40040FFF71EFD10BD30B50246002090
:1022A00000235068E84C20400D790C6844EA05246E
:1022B000204350609068E54C2040D1E902542C4303
:1022C0004D7944EA450420439060D06A20F47000C0
:1022D0000C7C641EE4B2234340EA0350D06230BD5C
:1022E00000210160017141718160C16001210174AF
:1022F000704721B1826842F00102826003E0826887
:1023000022F001028260704721B1826842F480723B
:10231000826003E0826822F480728260704710B5A8
:102320000023CBB21AB144681C43446002E0446805
:102330009C43446010BD816841F008018160704792
:10234000014600208A6802F008020AB1012000E07C
:1023500000207047816841F00401816070470146A8
:1023600000208A6802F004020AB1012000E0002087
:10237000704721B1826842F4A002826003E0826863
:1023800022F4A00282607047014600208A6802F4AD
:1023900080020AB1012000E00020704710B50A4613
:1023A00000210023416821F46041531E41EA43317A
:1023B000416010BD21B1426842F40062426003E016
:1023C000426822F4006242607047F0B504460D4650
:1023D00000200021092D11DDE068A5F10A0606EBB9
:1023E0004607072606FA07F18843A5F10A0606EB19
:1023F000460603FA06F10843E0600CE0206905EBAD
:102400004507072606FA07F1884305EB450603FA58
:1024100006F108432061072A0FDA606B561E06EBAF
:1024200086071F2606FA07F18843561E06EB860626
:1024300005FA06F10843606322E00D2A0FDA206BEB
:10244000D61F06EB86071F2606FA07F18843D61F1C
:1024500006EB860605FA06F10843206310E0E06A01
:10246000A2F10D0606EB86071F2606FA07F1884340
:10247000A2F10D0606EB860605FA06F10843E062B6
:10248000F0BD21B1826842F48012826003E082686C
:1024900022F48012826070470146C86C80B2704797
:1024A00066484C300068704721B1426842F480624F
:1024B000426003E0426822F480624260704721B1CA
:1024C000426842F48052426003E0426822F4805243
:1024D000426070470A460021816821F4E0411143BF
:1024E0008160704721B1826842F40042826003E05B
:1024F000826822F400428260704721B1826842F40F
:102500000212826003E0826822F402128260704745
:10251000014600208A6802F400120AB1012000E09E
:1025200000207047F0B50446154600200022002622
:10253000092911DDE068A1F10A0707EB470C07271D
:1025400007FA0CF29043A1F10A0707EB470703FAD9
:1025500007F21043E0600CE0206901EB410C072713
:1025600007FA0CF2904301EB410703FA07F210431C
:102570002061A06BC0F30156EF1C06F1010CA7EB24
:102580000C0707EB870C1F2707FA0CF29043EF1C90
:1025900006F1010CA7EB0C0707EB870701FA07F21E
:1025A0001043A063F0BD10B50A4600210023816BE3
:1025B00021F44011531E41EA0351816310BD08B557
:1025C000002300930090009B0B440093009B1A6033
:1025D00008BD08B5024600200090009201F12800D5
:1025E000009B184400900098006880B208BD0A461D
:1025F00000214168164B1940114341607047416208
:10260000826270470A460021416821F01F01114390
:102610004160704740B109490831096841F400013F
:10262000064A0832116007E004490831096821F4BC
:102630000001024A08321160704700000024014086
:1026400000280140003C0140FFFEF0FFFDF7F1FFD4
:10265000FFFD3FFF0246002013680B400BB1012035
:1026600000E000207047CA430260704770B5024620
:102670000020002300240B125568CEB205EA0604A0
:1026800015681D4015B10CB1012000E0002070BD9F
:1026900000220A12D34303607047000010B50446BD
:1026A000FE48844208D10121C014FFF713FB00212A
:1026B000E014FFF70FFBC4E0B4F1804F08D1012113
:1026C0000846FFF714FB00210120FFF710FBB8E0DC
:1026D000F348844208D101210220FFF708FB0021C2
:1026E0000220FFF704FBACE0EE48844208D1012150
:1026F0000420FFF7FCFA00210420FFF7F8FAA0E01D
:10270000E948844208D101210820FFF7F0FA0021AE
:102710000820FFF7ECFA94E0E448844208D1012154
:102720001020FFF7E4FA00211020FFF7E0FA88E01C
:10273000DF48844208D101212020FFF7D8FA002188
:102740002020FFF7D4FA7CE0DA48844208D1012146
:102750004014FFF7BFFA00216014FFF7BBFA70E0E6
:10276000D548844209D10121C804FFF7B3FA0021FA
:102770004FF40020FFF7AEFA63E0D048844209D15D
:1027800001210805FFF7A6FA00214FF48010FFF79A
:10279000A1FA56E0CA48844209D101214805FFF751
:1027A00099FA00214FF40010FFF794FA49E0C54868
:1027B000844208D101214020FFF799FA00214020EE
:1027C000FFF795FA3DE0C048844208D101218020FE
:1027D000FFF78DFA00218020FFF789FA31E0BB482E
:1027E000844208D101218015FFF781FA0021A0154C
:1027F000FFF77DFA25E0B648844209D1012108049B
:10280000FFF768FA00214FF48030FFF763FA18E011
:10281000B048844209D101214804FFF75BFA002146
:102820004FF40030FFF756FA0BE0AB48844208D172
:1028300001218804FFF74EFA00214FF48020FFF7B2
:1028400049FA10BD00220288944B98420ED0994B51
:1028500098420BD0B0F1804F08D0914B984205D0F0
:10286000904B984202D0904B984204D14FF68F7310
:102870001A404B881A438D4B984207D08C4B984294
:1028800004D04FF6FF431A40CB881A4302808B884E
:1028900083850B880385814B98420BD0854B9842EA
:1028A00008D08B4B984205D08A4B984202D08A4B75
:1028B000984201D10B7A038601238382704770B559
:1028C000002400220023058C4FF6FE763540058457
:1028D000028C8388048B4FF68F752C40B51E2C40DC
:1028E0000D882C43751E2A400D892A434D882A43A2
:1028F0006A4DA8420BD06F4DA84208D0744DA84233
:1029000005D0744DA84202D0734DA84213D14FF6A2
:10291000F7752A404D892A434FF6FB752A408D886A
:102920002A434FF6FF652B404FF6FF552B408D890C
:102930002B43CD892B4383800483CD8885860284F5
:1029400070BD70B5002400220023058C4FF6EF7691
:1029500035400584028C8388048B48F6FF752C4033
:102960004FF6FF452C400D884FF6FF7606EA052509
:102970002C434FF6DF752A400D8906EA05152A43D8
:102980004D8806EA05152A43444DA84202D0494D18
:10299000A8421DD14FF67F752A404D894FF6FF762C
:1029A00006EA05152A434FF6BF752A408D8806EAC8
:1029B00005152A434FF6FF352B404FF2FF752B408C
:1029C0008D8906EA85052B43CD8906EA85052B43CB
:1029D00083800483CD880587028470BD70B5002490
:1029E00000220023058C4FF6FF6635400584028CDB
:1029F0008388848B4FF68F752C404FF6FC752C40E6
:102A00000D882C434FF6FF552A400D894FF6FF766F
:102A100006EA05252A434D8806EA05252A431F4D67
:102A2000A84202D0234DA8421DD14FF2FF752A4083
:102A30004D894FF6FF7606EA05252A434FF6FF3506
:102A40002A408D8806EA05252A434EF6FF752B405D
:102A50004DF6FF752B408D8906EA05152B43CD8970
:102A600006EA05152B4383808483CD8885870284FD
:102A700070BD70B5002200230024058C4EF6FF7651
:102A800035400584038C8488828B48F6FF752A4084
:102A90004FF6FF452A400D8820E00000002C014041
:102AA0000004004000080040000C004000100040FE
:102AB0000014004000340140004C0140005001402F
:102AC0000054014000180040001C0040002000405D
:102AD0000040014000440140004801404FF6FF76AD
:102AE00006EA05252A434DF6FF752B400D8906EAB7
:102AF00005352B434D8806EA05352B43FA4DA84290
:102B000002D0FA4DA84208D14BF6FF752C408D89B2
:102B10004FF6FF7606EA85152C4384808283CD88A4
:102B2000A0F84050038470BD828B4FF2FF331A40EF
:102B30008283828B4FF6FF7303EA01231A43828359
:102B40007047F0B50C461546002200210026078C80
:102B50004EF6FF7C07EA0C070784828B018C4FF648
:102B6000FF7707EA043640F6FF473A404FF6FF7713
:102B700007EA05273A434FF6FF7707EA03373A4358
:102B8000D94FB8420ED0D94FB8420BD0B0F1804FD8
:102B900008D0D74FB84205D0D64FB84202D0D64F52
:102BA000B84206D14DF6FF77394046F48057394395
:102BB00005E047F6FF57394044F480573943828394
:102BC0000184F0BD828B4FF6F3731A408283828BAF
:102BD0000A4382837047F0B50C4615460022002157
:102BE0000026078C4FF6FF6C07EA0C070784828BE0
:102BF000018C4FF6FF7707EA04264FF60C773A4030
:102C00004FF6FF7707EA03172F433A43B64FB84210
:102C10000ED0B64FB8420BD0B0F1804F08D0B44FB1
:102C2000B84205D0B34FB84202D0B34FB84206D134
:102C30004FF6FF57394046F48077394305E04FF2AD
:102C4000FF57394044F48077394382830184F0BDD3
:102C5000028B4FF2FF331A400283028B4FF6FF7351
:102C600003EA01231A4302837047F0B50C46154668
:102C7000002200210026078C4FF6EF7C07EA0C07A4
:102C80000784028B018C4FF6FF7707EA041640F6A3
:102C9000FF473A404FF6FF7707EA03373A434FF6CC
:102CA000FF7707EA05273A438F4FB8420ED08F4F80
:102CB000B8420BD0B0F1804F08D08D4FB84205D04C
:102CC0008C4FB84202D08C4FB84206D14FF6DF7716
:102CD000394046F01007394305E04FF65F77394039
:102CE00044F01007394302830184F0BD028B4FF694
:102CF000F3731A400283028B0A4302837047F0B5D4
:102D00000C46154600220021068C4FF6FE773E4009
:102D10000684028B018C4FF60C7632407E1C06EA4C
:102D200003162E433243704EB0420ED06F4EB04267
:102D30000BD0B0F1804F08D06D4EB04205D06D4E33
:102D4000B04202D06C4EB04206D14FF6FD76314013
:102D500044F00106314305E04FF6F576314044F08A
:102D60000106314302830184F0BD70B505460C466F
:102D70005D4885420ED05D4885420BD0B5F1804F4D
:102D800008D05B48854205D05A48854202D05A484F
:102D9000854200D100E000BF208850B92389A28875
:102DA00061882846FFF7ABFFE1882846FFF79EFFC2
:102DB00025E0208804280AD12389A2886188284632
:102DC000FFF753FFE1882846FFF742FF17E020880E
:102DD00008280AD12389A28861882846FFF7FBFECC
:102DE000E1882846FFF7EEFE09E02389A288618882
:102DF0002846FFF7A6FEE1882846FFF795FE70BD3E
:102E00002DE9F04105460C4600260127608808B9E7
:102E1000022600E00026A088012801D1022700E058
:102E200001272088A0B92389A28861882846FFF756
:102E300066FFE1882846FFF759FF23893A46314665
:102E40002846FFF712FFE1882846FFF701FF13E04D
:102E50002389A28861882846FFF707FFE188284672
:102E6000FFF7F6FE23893A4631462846FFF747FF2B
:102E7000E1882846FFF73AFFBDE8F0810A884B88D1
:102E80001A438B881A43CB881A430B891A434B8900
:102E90001A438B891A43A0F8442070474FF6FF71FC
:102EA000818000210180C180418001727047002132
:102EB000018041808180C180018141818181C18106
:102EC0007047002101804180012181800021C18063
:102ED000018170470021018041808180C180018192
:102EE0004181818170470000002C01400034014085
:102EF0000004004000080040000C004021B102889E
:102F000042F00102028004E002884FF6FE731A408C
:102F10000280704731B1B0F8442042F40042A0F87A
:102F2000442005E0B0F84420C2F30E02A0F844208B
:102F300070471AB183890B43838102E083898B43F5
:102F4000838170478182704741EA0203A0F84830CC
:102F500070471AB183890B43838102E083898B43D5
:102F60008381704701894FF6F872114001817047E3
:102F70000A46002101894FF68F73194011430181E0
:102F8000704730B504460D4629462046FFF7F0FF4E
:102F9000208940F00700208130BD2DE9F041044632
:102FA0000D4616461F46602D06D13B46012231468E
:102FB0002046FFF75AFE05E03B46012231462046F7
:102FC000FFF79DFE29462046FFF7D2FF208940F0FB
:102FD00007002081BDE8F08130B50C460021018951
:102FE000C9B24FF6FF7505EA03251543254329436A
:102FF000018130BD2DE9F04105460E461746984641
:10300000002443463A4631462846FFF7E5FF2C891F
:103010004FF6F870044044F007044FF68F700440F8
:1030200044F070042C81BDE8F081F0B504460D46F3
:1030300016461F463B46324629462046FFF7CCFF40
:10304000208940F480402081F0BD01858282704754
:103050000A46002101884FF68F7319401143018001
:103060007047F0B50C4615461E460021002200238D
:103070000189028B038C4FF6F877394021434FF6D4
:10308000FC473A4040F201173A434FF6DD773B40A8
:103090004FF6FF7707EA06172F433B430181028370
:1030A0000384F0BD0A460021018B4FF68F7319404F
:1030B0001143018370470A460021018B48F6FF73D4
:1030C00019404FF6FF7303EA022319430183704747
:1030D0000A460021818B4FF68F731940114381837B
:1030E00070470A460021818B48F6FF7319404FF65E
:1030F000FF7303EA022319438183704721B10288D9
:1031000042F08002028004E002884FF67F731A408A
:103110000280704721B1828842F00402828004E07C
:1031200082884FF6FB731A408280704721B18288F3
:1031300042F00802828004E082884FF6F7731A405A
:103140008280704721B1828842F00102828004E0CF
:1031500082884FF6FE731A40828070470A4600212B
:10316000018B4FF6F77319401143018370470A46EC
:103170000021018B4FF2FF7319404FF6FF7303EAF2
:1031800002231943018370470A460021818B4FF6C1
:10319000F77319401143818370470A460021818BE0
:1031A0004FF2FF7319404FF6FF7303EA02231943EE
:1031B000818370470A460021018B4FF6FB7319404B
:1031C0001143018370470A460021018B4FF6FF33FC
:1031D00019404FF6FF7303EA022319430183704736
:1031E0000A460021818B4FF6FB73194011438183FE
:1031F00070470A460021818B4FF6FF3319404FF686
:10320000FF7303EA02231943818370470A460021B2
:10321000018B4FF67F7319401143018370470A46B3
:103220000021018BC1F30E014FF6FF7303EA022365
:103230001943018370470A460021818B4FF67F7343
:1032400019401143818370470A460021818BC1F3E5
:103250000E014FF6FF7303EA02231943818370477F
:103260000A460021018C4FF6FD7319401143018479
:1032700070470A460021018C4FF6F773194011433D
:10328000018470470A460021018C4FF6DF73194014
:103290004FF6FF7303EA02131943018470470A468D
:1032A0000021018C4FF67F7319404FF6FF7303EA3C
:1032B00002131943018470470A460021018C4FF61E
:1032C000FF5319404FF6FF7303EA022319430184A9
:1032D00070470A460021018C4FF2FF7319404FF6E8
:1032E000FF7303EA02231943018470470A46002151
:1032F000018C4DF6FF7319404FF6FF7303EA02335A
:1033000019430184704730B5002301248C40A3B2D7
:10331000048C9C430484048C02FA01F5ADB22C4366
:10332000048430BD30B5002304248C40A3B2048C47
:103330009C430484048C02FA01F5ADB22C4304844E
:1033400030BD70B503460020002418461830012512
:103350008D40ACB21D8CA5431D8409B1082909D14B
:1033600000EB6100056825F07005056005681543F0
:1033700005600EE00D1FC5F34E052844056825F4D1
:10338000E045056005684FF6FF7606EA02263543FC
:10339000056070BD21B1028842F00202028004E0A3
:1033A00002884FF6FD731A400280704721B10288EF
:1033B00042F00402028004E002884FF6FB731A40D8
:1033C0000280704721B1828842F08002828004E04E
:1033D00082884FF67F731A408280704702884FF6CA
:1033E000F7731A40028002880A430280704782887D
:1033F0004FF68F731A40828082880A43828070471A
:1034000002894FF6F8731A40028102890A43028149
:10341000704702894FF67F731A40028102890A437E
:10342000028170478184704781857047818670472B
:103430000187704781877047A0F840107047028865
:103440004FF6FF431A40028002880A430280704709
:103450000146888E70470146088F70470146888F65
:1034600070470146B1F8400070470146888C7047AC
:103470000146088D704702460020138A0B400BB1AD
:10348000012000E000207047CA430282704730B537
:103490000246002000230024158A05EA01039589CD
:1034A00005EA010413B10CB1012000E0002030BD99
:1034B000CA43028270470000002044490860091D89
:1034C0000860091D0860091D086041483F49143122
:1034D0000860704700213D498279002A3AD00A46A7
:1034E000126803689A430B461A600A1D1268036843
:1034F0009A430B1D1A60027911440A6803681A4343
:103500000A60324A0832126803689A432F4B083324
:103510001A601A1D126803689A432C4B0C331A6008
:103520004279102A0ED11A1F126803681A43274BDA
:1035300008331A601A1D126803681A43234B0C33B0
:103540001A600DE02149427911440A6803681A4360
:103550000A6005E0027911440A6803689A430A6028
:1035600070470021016001710C21417100218171BE
:1035700070471649103109680143144A103211602E
:10358000704701460020114A143212680A400AB1FD
:10359000012000E0002070470C491431086070479A
:1035A000014600200022094B1B6803EA0102074B79
:1035B00014331B680B4013B10AB1012000E0002056
:1035C0007047024914310860704700000004014050
:1035D000FFFF0F002DE9F04F4FF0000C4FF00003FC
:1035E00001EB1C6EBEF90250BEF900400EF5807E64
:1035F000BEF90290BEF900800EF5807EBEF9027021
:10360000BEF900600EF5807EBEF902B0BEF900A0E2
:103610000EF5807ED044D944A8EB4A0AA9EB4B0BA7
:103620004FEAA4044FEAA50504EBA60405EBA705A1
:10363000A4EB6606A5EB670704EBA80405EBA90558
:10364000A4EB6808A5EB690906EBAB06A7EBAA0794
:10365000A6EB6B0B07EB6A0A458020F8044B47800A
:1036600020F8046BA0F8029020F8048BA0F802A0C8
:1036700020F804BB03F1010393FAA3FC402BAFD164
:10368000A0EB82014FF0100312090FF2361000F187
:10369000000006B403EB430C6144A2F5803202EB58
:1036A0008332B1F90250B1F90040A1EB0301B0F946
:1036B00002B0B0F900A000F10400A5EB040E0EFB6F
:1036C0000BFC0AEB4B0E05FB0ACB04FB0ECAB1F94F
:1036D0000250B1F90040A1EB0301B0F90290B0F93A
:1036E000008000F10400A5EB040E0EFB09FC08EBC2
:1036F000490E05FB08C904FB0EC8B1F90250B1F927
:103700000040A1EB0301B0F90270B0F9006000F1D4
:103710000400A5EB040E0EFB07FC06EB470E05FBB1
:1037200006C704FB0EC6B1F90250B1F9004001F121
:103730000001D044D944A8EB4A0AA9EB4B0B4FEA4D
:10374000A4044FEAA50504EB264405EB2745A4EBAA
:10375000E636A5EBE73704EB284405EB2945A4EB57
:10376000E838A5EBE93906EB2B46A7EB2A47A6EB91
:10377000EB3B07EBEA3A4D800C8019444F800E80FA
:103780001944A1F80290A1F800801944A1F802A000
:1037900021F804BBB2F5803283DA03EB430C6144B9
:1037A000A2F101025FEA024E18BFA0EB0C007FF409
:1037B00076AF06BC4FEA830392087FF46AAFBDE898
:1037C000F08F0040000000400000004000005DDD80
:1037D000213BA3227E180000412D7EA5412D000033
:1037E000412D00C000405DDD82E75DDD213B7EA50F
:1037F000412D004000000040000000400000AA2AC7
:1038000094126B39460649327C0CA8118E2349323A
:103810007C0CA3227E1821F77931AA2A9412A811D0
:103820008E235DDD213BA3227E180000412D95C62D
:10383000B13F461A2B1E58EE3735BEB4C53EA8110F
:103840008E235DDD213B63A97138DF089A28B7CD4F
:10385000C53E7EA5412D0000412D00C0004063A95A
:103860002B1E21F77931BEB4C53EBEB47C0C58EE98
:10387000373561AC213B95C6BAF9BAE571383BA73B
:1038800037355DDD82E75DDD213B7EA5412D21F7EA
:1038900066D756D53F3D3BA78E23A811C9CAB7CDE1
:1038A000C53E61AC7E18AA2AC1C295C6B13FBEB45E
:1038B0007C0C0040000000400000004000001E3B67
:1038C000B504693E9201C83C2403EB356409C83C49
:1038D00024036B3946066C30060E1E3BB504EB35EF
:1038E0006409AA2A94126B39460649327C0CAE242C
:1038F0000917AF37D607882E8D0F7E1E5D1BEB355F
:103900006409AA2A941224188C1F1E34F10AB326C3
:103910009015A8118E2349327C0CA3227E18140B1B
:1039200060276C30060E7E1E5D1B7104FB2A882EFC
:103930008D0F461A2B1EC7FD5A2E9D2C1211FE15F7
:10394000E72021F77931AA2A9412A8118E2387F053
:103950005334B2281314480D202602EAE536B32664
:103960009015DF089A289CE32B39AE2409177104BF
:10397000FB2A5DDD213BA3227E180000412D4ED79E
:10398000C53C9320EF198FFB6C2F78D1153E7E1E1E
:103990005D1B21F77931E2CB0F3F641CC61CB8F2E6
:1039A000683395C6B13F461A2B1E58EE373597C17E
:1039B000FB3F24188C1F02EAE536F0BCEC3FFE15F5
:1039C000E720BAE57138A6B8853FD5133D2282E1DC
:1039D000DB39BEB4C53EA8118E235DDD213B40B16D
:1039E000AF3D790FDA244DD9423C2EAE423C480D12
:1039F000202656D53F3D8EAB823A140B602778D1F6
:103A0000153E63A97138DF089A28B7CDC53EB1A726
:103A10001236A906CE2915CA4F3F78A6683371041D
:103A2000FB2A95C6B13FBCA576303902212C38C39C
:103A3000EC3F7EA5412D0000412D00C00040BCA5FB
:103A4000CE29C7FD5A2EF0BCEC3F78A620268FFB6E
:103A50006C2F09BAB13FB1A73D2257F976304DB767
:103A60004F3F63A92B1E21F77931BEB4C53E8EAB03
:103A7000EF19ECF474325EB2153E2EAE9015B8F22A
:103A800068332DB03F3D40B1121187F053342EAE54
:103A9000423CBEB47C0C58EE373561AC213BA6B835
:103AA000D6072BEC1236C8AADB39F0BC240302EA95
:103AB000E53663A9713897C16EFEDCE7B03734A8EC
:103AC000E53695C6BAF9BAE571383BA73735E2CB8A
:103AD0000FF59CE32B3978A6683378D173F082E137
:103AE000DB39EDA579314ED7EDEB6DDF823A99A543
:103AF0006C2F5DDD82E75DDD213B7EA5412D9CE3E2
:103B00003AE352DBB63B99A5FB2A02EA19DF4DD90D
:103B1000423CEDA59A2887F026DB4ED7C53C78A617
:103B2000202621F766D756D53F3D3BA78E23C7FDFC
:103B3000DFD363D3AF3D34A8E720710494D078D1AC
:103B4000153E63A92B1E140B8CCD94CF723EC8AAD0
:103B50005D1BA811C9CAB7CDC53E61AC7E1824183B
:103B600050C8E2CB0F3F2EAE90157E1E25C615CA5B
:103B70004F3F2DB09412AE244AC451C8853F5EB267
:103B80008D0FAA2AC1C295C6B13FBEB47C0C6C3061
:103B90008EC1E2C4D43F4DB76409EB35B1C038C320
:103BA000EC3F09BA46061E3B2CC097C1FB3FF0BC58
:103BB0002403F0B480EA0102D40F4200B2EB410FBB
:103BC00002D20246084611464A0042D0C30DDDB279
:103BD000C1F3C752AD1A202D35DAC1F3160141F4F5
:103BE000000204B15242C5F1200602FA06F12A4150
:103BF0001044B3EBD05F23D0C4B1012DA0EBC35070
:103C000009DCF0BC4FF0004202EAC352DBB200F51F
:103C1000000000F05AB9400000F1807000EBC35082
:103C2000A0F1807040EAD170490009E0490841EAFA
:103C3000C071A0EBC35000F50000400800EBC3507A
:103C4000F0BC00F039B96142012202EB4101001BD6
:103C5000F6E7F0BC704781F00041AAE780F0004031
:103C6000A7E780EA010210B502F00043400022D02D
:103C70004A001FD0010E01EB1261C0F35600C2F3DF
:103C8000560240F4000042F40002A0FB02200004AF
:103C90007F39140400D0401C50EA124001D4400087
:103CA000491EC2B20C0604EBD010401C4008802A0A
:103CB00002D003E0002010BD20F00100002900DA4E
:103CC0000020184310BD30B480EA010202F0004524
:103CD00030F0004221F0004013D090B1C30DD40D5C
:103CE000C2F31601C0F31600E41A41F4000140F4D7
:103CF00000027D34914201D3641C00E04900002C95
:103D000002DA30BC002070474FF4000000239142DB
:103D100001D3891A034340084FEA4101F7D151B159
:103D2000914202D14FF0004105E002D24FF0010173
:103D300001E06FF0010103EBC450284430BC00F0F7
:103D4000BBB82DE9F04D81EA030404F0004B21F0EB
:103D5000004514464FF0000A23F0004150EA0502E6
:103D600020D054EA01021DD0C5F30A570246C5F31C
:103D70001303C1F31300C1F30A5640F4801543F452
:103D80008013A7EB0608101BD64608F2FD3873EB2C
:103D9000050002D308F1010801E092185B41B8F177
:103DA000000F03DA00200146BDE8F08D00204FF43B
:103DB0008011064684460EE0171B73EB050705D3FA
:103DC000121B63EB050306434CEA010C49084FEA5A
:103DD000300092185B4150EA0107EDD152EA03002E
:103DE00012D082EA040083EA0501084305D0101BC3
:103DF000AB4106D20122002306E000224FF000432F
:103E000002E06FF0010253101AEB06004CEB085170
:103E100010EB0A0041EB0B01BDE8F04D00F083B858
:103E2000C10F80EAE0700844CA079623002100F021
:103E30004CB820F00040C10DC0F3160040F4000063
:103E40007F2901DA00207047962903DCC1F1960131
:103E5000C840704796398840704700F0004230F003
:103E600000400AD0C10D01F56071C0F3160042EAAE
:103E70000151C208400711437047002001467047B6
:103E800001F0004330B421F0004150EA010206D0B5
:103E90000A0DA2F56072C1F31301002A02DC30BCE6
:103EA00000207047440F44EAC104C100E01830BC50
:103EB00000EBC250AFF300800029A8BF7047401C40
:103EC000490008BF20F00100704710B4B0FA80FC30
:103ED00000FA0CF050EA010404BF10BC704749B16D
:103EE000CCF1200421FA04F411FA0CF118BF0121DD
:103EF00021430843A3EB0C01CB1D4FEA00614FEABD
:103F0000102042BF002010BC704700EBC35010448B
:103F10000029A4BF10BC7047401C490008BF20F016
:103F2000010010BC704710B5141E73F1000408DACC
:103F3000401C41F1000192185B411A4301D120F06D
:103F4000010010BD2DE9F04D92469B4611B1B1FA2A
:103F500081F202E0B0FA80F22032904600F0A4F83C
:103F600004460F4640EA0A0041EA0B0153465A460E
:103F7000084313D0114653EA010019D0C8F140029A
:103F8000504600F0A0F805460E46504659464246B7
:103F900000F08AF8084305D0012004E020463946A5
:103FA000BDE8F08D0020054346EAE0762C43374318
:103FB0000A986305E40AA0EB08000022FD0A44EA1F
:103FC00047540A3002D500200146E9E701051019DF
:103FD0006941DDE9084500196941BDE8F04DA2E7F6
:103FE0002DE9F04D00231A461B1A8A4103DB0020FD
:103FF0000146BDE8F08DC1F30A52C1F3130141F44B
:1040000080154FF0000BD10702D100186D41521EF0
:104010000027044640F2FF11384601EB620A3E4693
:104020008046024600204FF4801100F04CF8C2197F
:104030007141BB1846EB0100B4EB030C75EB000CAF
:1040400004D3E41A65EB000517460E46241908F15F
:1040500001006D4180463428E3DDF91946EB060086
:10406000091BA84103D24FF0FF32134601E00022A2
:1040700013461BEB070046EB0A51BDE8F04DFFF776
:1040800052BF0000064C074D06E0E06840F0010317
:1040900094E8070098471034AC42F6D3FCF74CF88C
:1040A00088510008A8510008202A04DB203A00FAB1
:1040B00002F1002070479140C2F1200320FA03F37F
:1040C000194390407047202A04DB203A21FA02F07D
:1040D0000021704721FA02F3D040C2F12002914042
:1040E00008431946704770B58D1810F8014B14F04D
:1040F000030201D110F8012B231106D110F8013B66
:1041000003E010F8016B01F8016B521EF9D1ABB15D
:1041100010F8012B04F00C048A1A0C2C03D0A2EB2B
:1041200084129B1C08E010F8014BA2EB0422F8E774
:1041300012F8014B01F8014B5B1EF9D5A942D4D30B
:10414000002070BD014A024900F01AB8D10D0008E4
:104150001800002002E008C8121F08C1002AFAD186
:1041600070477047002001E001C1121F002AFBD1F7
:10417000704700000149086070470000501000209F
:104180002DE9F04116460F460446002503E0394666
:10419000B047641C6D1C20780028F8D12846BDE883
:1041A000F0812DE9F04106460F46FFF719FF041E86
:1041B0000D4618BF0120284320F00040C0F17F6069
:1041C00000F1E040C00F0ED0301C18BF0120384372
:1041D00020F00040C0F17F6000F1E040C00F04BF5C
:1041E0000120FFF7C7FF20462946BDE8F081000007
:1041F000000000000000002F000000000700070082
:1042000000147F147F1400242A7F2A12006264089D
:10421000132300364955225000000503000000001A
:104220001C224100000041221C000014083E08141A
:104230000008083E0808000000A060000008080808
:104240000808000060600000002010080402003E22
:104250005149453E0000427F4000004261514946BD
:10426000002141454B31001814127F1000274545AD
:104270004539003C4A4949300001710905030036BF
:104280004949493600064949291E000036360000D2
:1042900000005636000000081422410000141414D7
:1042A00014140000412214080002015109060032D2
:1042B0004959513E007C1211127C007F4949493610
:1042C000003E41414122007F4141221C007F49497B
:1042D0004941007F09090901003E4149497A007FAF
:1042E0000808087F0000417F4100002040413F0155
:1042F000007F08142241007F40404040007F020CB4
:10430000027F007F0408107F003E4141413E007F54
:1043100009090906003E4151215E007F091929461D
:104320000046494949310001017F0101003F4040F9
:10433000403F001F2040201F003F4038403F0063A7
:1043400014081463000708700807006151494543C9
:1043500000007F41410000552A552A550000414187
:104360007F00000402010204004040404040000081
:1043700001020400002054545478007F484444381B
:1043800000384444442000384444487F00385454A2
:10439000541800087E0901020018A4A4A47C007F20
:1043A000080404780000447D4000004080847D00C3
:1043B000007F102844000000417F4000007C04186A
:1043C0000478007C0804047800384444443800FC35
:1043D000242424180018242418FC007C0804040851
:1043E00000485454542000043F444020003C4040C6
:1043F000207C001C2040201C003C4030403C0044FD
:1044000028102844001CA0A0A07C004464544C4404
:104410001414141414140000000000000000000024
:10442000000000000000000000F800000000000094
:1044300000333000000000100C06100C06000000D5
:1044400000000000000040C07840C0784000043FF9
:1044500004043F040400007088FC083000000018C9
:1044600020FF211E0000F008F000E01800000021ED
:104470001C031E211E0000F00888700000001E2191
:1044800023241927211010160E0000000000000040
:10449000000000000000000000E01804020000001E
:1044A00000071820400000020418E000000000404F
:1044B000201807000000404080F0804040000202C9
:1044C000010F01020200000000F0000000000101E5
:1044D000011F01010100000000000000000080B089
:1044E000700000000000000000000000000000015B
:1044F0000101010101010000000000000000003086
:10450000300000000000000000008060180400601F
:1045100018060100000000E010080810E000000F7D
:10452000102020100F00001010F8000000000020E4
:10453000203F20200000007008080888700000302C
:1045400028242221300000300888884830000018D4
:10455000202020110E000000C02010F800000007ED
:104560000424243F240000F8088888080800001963
:10457000212020110E0000E0108888180000000F94
:10458000112020110E0000380808C838080000006B
:10459000003F000000000070880808887000001CC0
:1045A000222121221C0000E010080810E000000079
:1045B000312222110F00000000C0C00000000000E6
:1045C000003030000000000000800000000000000B
:1045D0008060000000000000804020100800000102
:1045E00002040810200040404040404040000404C5
:1045F000040404040400000810204080000000208F
:10460000100804020100007048080808F0000000CB
:10461000003036010000C030C828E810E00007185C
:10462000272423140B000000C038E0000000203CC9
:1046300023020227382008F8888888700000203F6D
:10464000202020110E00C030080808083800071884
:1046500020202010080008F808080810E000203F7B
:10466000202020100F0008F88888E8081000203F5C
:1046700020202320180008F88888E8081000203F30
:10468000200003000000C0300808083800000718A8
:104690002020221E020008F808000008F808203F29
:1046A000210101213F20000808F80808000000202F
:1046B000203F2020000000000808F8080800C08003
:1046C00080807F00000008F888C028180800203F7C
:1046D00020012638200008F8080000000000203FD4
:1046E00020202020300008F8F800F8F80800203FCB
:1046F000003F003F200008F830C00008F808203FC5
:10470000200007183F00E01008080810E0000F1014
:10471000202020100F0008F808080808F000203FAB
:10472000210101010000E01008080810E0000F1846
:10473000242438504F0008F8888888887000203F6B
:104740002000030C3020007088080808380000386A
:10475000202121221C00180808F808081800000071
:10476000203F2000000008F808000008F808001F9B
:10477000202020201F000878880000C8380800008A
:1047800007380E010000F80800F80008F800033CA4
:104790000700073C0300081868808068180820306C
:1047A0002C03032C30200838C800C838080000004B
:1047B000203F2000000010080808C83808002038F2
:1047C000262120201800000000FE02020200000046
:1047D000007F40404000000C30C00000000000009E
:1047E00000010638C00000020202FE000000004086
:1047F00040407F00000000000402020204000000AC
:1048000000000000000000000000000000008080A8
:104810008080808080800002020400000000000090
:10482000000000000000000080808080000000196F
:10483000242222223F2008F8008080000000003F50
:10484000112020110E000000008080800000000E6A
:10485000112020201100000000808088F800000E48
:10486000112020103F200000808080800000001F69
:10487000222222221300008080F0888888180020DD
:10488000203F202000000000808080808000006B9E
:1048900094949493600008F8008080800000203F8A
:1048A000210000203F200080989800000000002098
:1048B000203F20200000000000809898000000C0E9
:1048C0008080807F000008F8000080808000203F0A
:1048D00024022D302000000808F80000000000200D
:1048E000203F202000008080808080808000203F4A
:1048F00020003F20003F8080008080800000203F1B
:10490000210000203F200000808080800000001FE8
:10491000202020201F00808000808000000080FF79
:10492000A12020110E000000008080808000000E79
:10493000112020A0FF8080808000808080002020C7
:104940003F21200001000000808080808000003333
:10495000242424241900008080E0808000000000CE
:10496000001F202000008080000000808000001FC9
:10497000202020103F208080800000808080000167
:104980000E300806010080800080008080800F309B
:104990000C030C300F00008080008080800000201D
:1049A000312E0E3120008080800000808080808148
:1049B0008E701806010000808080808080000021B9
:1049C000302C2221300000000000807C0202000018
:1049D0000000003F404000000000FF000000000019
:1049E0000000FF0000000002027C80000000004088
:1049F000403F000000000006010102020404000024
:104A000000000000000000000000000000000000A6
:104A10000000000000000000000000000000000096
:104A20000000000000000000000000000000000086
:104A30000000000000000000000000000000000076
:104A4000000000000000000000000080C040404066
:104A5000C080000000000000F0FE0F010000000018
:104A6000000107FEF00000001FFFE0000000000052
:104A70000000C0FF1F000000000001030604040442
:104A80000603010000000000000000000080C000DC
:104A900000000000000000000001010101FFFF0014
:104AA00000000000000000000000000000FFFF0008
:104AB00000000000000000000004040406070706D0
:104AC000040404000000000000008040404040401A
:104AD000C0808000000000001E19000000000000DF
:104AE00000C17F3E0000000000804020100804024A
:104AF000010000E0000000000706060606060606A4
:104B0000060607010000000000808040404040C0D1
:104B100080800000000000000F0F0000808080C037
:104B2000613F1E0000000000E0E000000000000106
:104B30000103FE78000000000103020404040404E1
:104B400002030100000000000000000000000080DF
:104B5000C0C000000000000000008060300C02FFB8
:104B6000FFFF0000000000101C121110101010FFB9
:104B7000FFFF101010000000000000000808080FE0
:104B80000F0F0808080000000000C0C0C0C0C0C06F
:104B9000C0C0C0C00000000000F8874020202020D6
:104BA00060C0800000000000E06100000000000024
:104BB0000080FF7E000000000102040404040404DD
:104BC00002030100000000000000000080C040401F
:104BD0004040800000000000E0FC0E81804040402A
:104BE00040C08303000000003FFFC301000000003D
:104BF000000001FF7E000000000001030604040421
:104C0000040203010000000000C0C0C0C0C0C0C05A
:104C1000C0C0C0C0000000000F03010000008060A1
:104C2000180601000000000000000000E0FC030086
:104C30000000000000000000000000000707000066
:104C40000000000000000000000080C04040404024
:104C5000C0800000000000001E3F71E0C080808026
:104C600080613F1E000000F8FC0603010001010303
:104C7000070EFCF800000000010302040404040411
:104C800002030100000000000080804040404040DE
:104C900080000000000000FCFF0300000000000096
:104CA0000083FEF80000000081830604040404026F
:104CB00083F17F0F000000000303040404040603D3
:104CC000010000000000000000000000C0C0E00083
:104CD00000000000000000000000C07C07013FFC55
:104CE000C000000000000000C07C070404040407AA
:104CF0007FFC8000000004060704040000000000A0
:104D0000040707040400004040C0C0404040404049
:104D1000C08080000000000000FFFF808080808055
:104D2000C0613F1F0000000000FFFF000000000006
:104D3000000103FEF800000404070704040404044F
:104D4000040603010000000000000080C040404055
:104D5000408080C0000000E0FC0E03000000000066
:104D6000000001030C00001FFFE000000000000035
:104D7000000000806000000000010302040404043D
:104D8000040203010000004040C0C040404040C059
:104D9000808000000000000000FFFF000000000015
:104DA00000010FFEF000000000FFFF000000000007
:104DB0000000E07F1F000004040707040404040649
:104DC00002030100000000000000000000000000DD
:104DD000000000000000000030707060C086FF8698
:104DE000C060707030000000181C1C0C06C2FFC2AE
:104DF000060C1C1C1800000000000000000101004F
:104E00000000000000000000000000C000000000E2
:104E10000000C000000000181818F81F1818181813
:104E200018F81F181800003030F03F3030303030A4
:104E3000F03F3030300000000007000000000000AC
:104E400007000000000000000080404020202020DB
:104E50002040C080000000001E1F1C0000000080D9
:104E6000C040603F1F00000000000000009E810065
:104E7000000000000000000000000000030707031E
:104E8000000000000000424242F2029F9292929F74
:104E900002F2424222000000000000000000000078
:104EA0000000000000008464020F20C7040424C72F
:104EB000000728C80E0000000000000000000000ED
:104EC0000000000000000000F000000000FF0000F3
:104ED0000000F000000000000000000000000000E2
:104EE00000000000000000003F202020203F202084
:104EF00020207F00000000000000000000000000F3
:104F000000000000000020202020202020FF202082
:104F100020202020200000000000000000000000F1
:104F200000000000000080804020100C0300030CF3
:104F30001020408080000000000000000000000001
:104F400000000000000040301196909091969090E3
:104F50009814135030000000000000000000000012
:104F6000000000000000040404040444847E0605DC
:104F7000040404040400000000000000000000001D
:104F8000000000000000008060F8070004242425D1
:104F9000262424240400000000000000000000007B
:104FA000000000000000010000FF000000F9494976
:104FB000494949F90000000000000000000000001D
:104FC000000000000000000000FC545456555454EA
:104FD00054FC000000000000000000000000000081
:104FE00000000000000040300003394141455941B4
:104FF00041730008300000000000000000000000C5
:1050000000000000000000FE225A86100C24242517
:10501000262424140C000000000000000000000002
:1050200000000000000000FF0408078041310F016C
:10503000013F41417100000000000000000000003D
:10504000000000000000008060F80740300FF88882
:1050500088888808080000000000000000000000A8
:10506000000000000000010000FF00000000FF0839
:105070000808080800000000000000000000000010
:10508000000000000000202024242424BF642434D5
:105090002824222020000000000000000000000062
:1050A00000000000000010080402FF494949494976
:1050B00049FF0000000000000000000000000000A8
:1050C00000000000000000028282828282FE828252
:1050D0008282820200000000000000000000000048
:1050E000000000000000404040404040407F404001
:1050F0004040404040000000000000000000000070
:105100000000000000001088C4330020102824E3B1
:1051100024281020200000000000000000000000F3
:105120000000000000000100FF0020110D41817F00
:10513000010509310000000000000000000000002F
:105140000000000000000022261A92027E80222623
:105150001A12027E000000000000000000000000A3
:10516000000000000000080402FF555555557F550A
:1051700055555541000000000000000000000000EF
:105180000000000000000000A851000800000020FE
:1051900054100000E6400008E45D000854100020B0
:1051A0001C13000064410008500600A24A040001DC
:1051B000C00B010203040607080901000170113148
:1051C00034372A3235383033363923414243441993
:1051D00082400420115DDD213BA3227E18000041A6
:1051E0002D7EA5412D08200900C000405DDD82E72D
:1051F0001C311491302011AA2A94126B39460649A9
:10520000327C0CA8118E23082140200521F779312A
:105210001C2114A154601195C6B13F461A2B1E588B
:10522000EE3735BEB4C53E20A00D63A97138DF0846
:105230009A28B7CDC53E78200563A92B1E4C212C9A
:105240002005BEB47C0C38A01161AC213B95C6BAD8
:10525000F9BAE571383BA737359C201121F766D79D
:1052600056D53F3D3BA78E23A811C9CA50200961DE
:10527000AC7E18AA2AC1C27C2144A1F020111E3B99
:10528000B504693E9201C83C2403EB35640908214A
:10529000D020056C30060E1C2114A1E46011AE2450
:1052A0000917AF37D607882E8D0F7E1E5D1B20A4F1
:1052B0000D24188C1F1E34F10AB326901508200502
:1052C000140B60274C212C20057104FB2A38250083
:1052D000A40DC7FD5A2E9D2C1211FE15E7202C207F
:1052E0001187F05334B2281314480D202602EAE542
:1052F0003650251820059CE32B397C2144A5A42099
:10530000114ED7C53C9320EF198FFB6C2F78D11528
:105310003E682530A40DE2CB0F3F641CC61CB8F2DA
:10532000683374200597C1FB3FAC215C2005F0BCBD
:10533000EC3F802548A40DA6B8853FD5133D2282B9
:10534000E1DB3998201140B1AF3D790FDA244DD916
:10535000423C2EAE423C98256020058EAB823ADC62
:105360002174A5BC2011B1A71236A906CE2915CAF1
:105370004F3F78A66833F42578A40DBCA576303964
:1053800002212C38C3EC3FE02405BCA5CE290C211A
:105390008C200578A62026C8A81109BAB13FB1A76C
:1053A0003D2257F976304DB74F3F0420118EABEFB9
:1053B00019ECF474325EB2153E2EAE9015E024095D
:1053C0002DB03F3D40B112113C21A4A9282411A6C3
:1053D000B8D6072BEC1236C8AADB39F0BC2403542C
:1053E000296CA80D97C16EFEDCE7B03734A8E5360E
:1053F0004C153826F56C21BC240578D173F010A823
:1054000011EDA579314ED7EDEB6DDF823A99A56CA0
:105410002F7024119CE33AE352DBB63B99A5FB2A9B
:1054200002EA19DF282409EDA59A2887F026DB9CDB
:1054300021D4A9944411C7FDDFD363D3AF3D34A871
:10544000E720710494D040A80F2B1E140B8CCD9430
:10545000CF723EC8AA5D1BB82405241850C8CC21C1
:10546000EC24057E1E25C658A8112DB09412AE243A
:105470004AC451C8853F5EB28D0FDC24116C308E5A
:10548000C1E2C4D43F4DB76409EB35B1C070240903
:1054900009BA46061E3B2CC0FC2504ADC0032011F2
:1054A000D03E2E019B3F6500363FC9009A3D5B020E
:1054B000082D100320055F3C88031C2114AD240334
:1054C0006011D939E205023EF701F43BED038E3855
:1054D0000E0720AC0D3F373908313DC002463A7EF9
:1054E000054803200592348E0A4C212C20053433C4
:1054F000B70B382D4003AC0DD231DF0C8A3B510481
:10550000CE369D086C032011022F2B0FB23A1A05DC
:1055100005352B0A932D5010502D58032005212CB2
:1055200073117C2144AD740420113129B413FD386A
:10553000AA065B31410DB327D214942D7003AC0D34
:105540003226EE151F3872077B2FCA0EB4032005D2
:1055500026232118AC215C20059C213719802D8839
:1055600003AC0D0E204B1A5D360109A42BD311D8C4
:10557000032011EB1C6C1C7835C709AF2954135656
:105580001B791D982DA0032005BE19841EDC2174F3
:10559000ADFC03201188169120A933540BB1254C82
:1055A00016EA149321F42DB803AC0D4A139222BFCE
:1055B000321A0CA923C41720042405051088240CD2
:1055C000218C2005610E7E25C82DD003AC0DBB0CAF
:1055D0007126E430A40D891FA71A440420116D0917
:1055E0004C28F42F680E721D121CC4073529E02DBB
:1055F000E80324051B061A2A3C21A4BD68042410D4
:1056000002D82B0E2EEE0F3519DC1E1C01B22C54C5
:105610002DAC04AC0D72FF882D182DB11011173A66
:10562000208C0424051DFC282F6C21BC240573FA52
:10563000F22F102D1804AC0DCAF8B830282B3412F4
:10564000BF12E722B004241179F536322D2AF41264
:1056500091103524D2F3EF32282D300424052CF29A
:10566000A3339C21D4ADD4042411E3EEFF343328BA
:1056700073142E0CC12641EDA535402D4804AC0D08
:10568000A1EB483633273115FA09FE27F804240523
:1056900065E87E37CC21EC2405CBE61238582D6026
:1056A00004AC0D32E5A1382F25AB168D05652A1CFB
:1056B00005241108E2B0392B24661755038F2B7788
:1056C000E0303A702D78042405E9DEAB3AFC25047D
:1056D000AD90062811D5DB923B1F22DB18E4FECFEC
:1056E0002D4FDAFD3B142D9004AC0DCDD8643C1742
:1056F000219319ABFCE42E64052805D3D5213D2C5C
:10570000251C24055CD4783DA02DA804AC0DE8D25E
:10571000C93D041F021B3CF8F930880524110CD048
:105720005C3EF81DB81B06F6F831A5CE9D3EB82D9F
:10573000C004280541CDD83E5C2534ADAC0524110C
:1057400088CA403FDD1B201D9FF1DF3332C96B3F0C
:10575000D02540AC0DE1C7913FCE1AD31D6FEFC6E7
:1057600034D00528054EC5CC3F8C254C24050CC4EF
:10577000E13FE82DF004AC0DCFC2F13FAD18341F6E
:1057800016EB7D36F4051E657405280D9B17E31F87
:10579000EFE84B3738BFFF3F002D0805280511BE45
:1057A000F83FBC2564AD18062811D4BBDB3F741547
:1057B0003D21AAE4CF38BFBAC43F182D8C06AC0DEA
:1057C000AFB9A73F5F14E8218EE284393C06280573
:1057D000A2B75D3FEC257C2805A5B6303F302D38BB
:1057E00005AC0DAFB5FD3E34123B2364DED33AF871
:1057F000072811D5B3883E1D11E22357DC6D3BF21B
:10580000B2453E482D50052C0515B2FC3D1C032524
:1058100094AD84062C1171B05B3DED0E2C254DD856
:10582000853CA9AF033D340325A0AC0DE8AEA53CF3
:10583000D40DCF2551D6033DA8062C057BADDA3B10
:105840004C0325AC2805D0AC6D3B782D8005BC0CF5
:105850002BACFA3AA10B11276DD2E3CC062811F834
:10586000AA063A870AAF2785D0453E6AAA843990AE
:105870002D98052C05E3A9FD387C0325C4ADF00661
:105880002811EBA8E1375208E728CCCCEB3E7BA8E7
:105890004B37A82DB005AC0D12A8B13636078129BB
:1058A000FBCA303F14072C0557A76E35AC0325DC27
:1058B000280505A7C634C02DC805BC0CBBA61934E5
:1058C000FF04B02A72C79C380728113EA6B232E303
:1058D00003452BBAC5C43F0BA6F831D82DE0052CE3
:1058E00005E0A53931DC0325F4AD5C072C11A1A539
:1058F000AF2FAA016A2C66C2F53F8DA5E42EF403F2
:105900002DF805BC0C81A5152E8E00FA2CCAC0FFFF
:1059100080072C0581A56A2C0C04290C2C058DA56B
:105920008F2B0803100473BEFB48AC0BB02A56FE45
:10593000152EB0BDF53FA407100CE0A5E72839FDF2
:105940009F2E32BCE1902FFE272003100477BBD49A
:10595000A82F11273C042924ADC807100CBBA62C86
:105960002501FBAF2F56B99CF02F35245404293064
:10597000BC0C57A73B23E5F93430F8B76BEC072C88
:105980000512A83D216C04293C2C057BA83A205027
:1059900003AC1100B60F3FEBA8341FAEF739315EF0
:1059A000B5EB3E140A140CE3A9201D93F6B931227D
:1059B000B49DB02F121C6803140488B372C82F0260
:1059C0001B9C042954AD3408180C2BACDB185FF475
:1059D000B232CDB1E3102FC417B4042960AC0D7BF3
:1059E000ADAB1645F32C33B5B0783D58082C05E81F
:1059F000AE7314CC04296C2C05A9AF54139803186A
:105A00000428AFC588AC0B341213F11934A9AE8544
:105A10003C7C08180C15B2EE0FFBEF8D34B6ADFDD3
:105A2000D02FCA0EB003180441ADB6E82FA40DFC68
:105A3000042984ADA0081C0CAFB5540BCCED6E3519
:105A4000F6ABD330032F2B0A14052990AC0DA2B767
:105A50000109B6ECDC3529AB303AC4082C05AFB9E6
:105A6000AA062C05299C2C05BFBA7E05E003AC11C3
:105A70000FAA2B39D4BB51048CEAB136B7A9CF3861
:105A8000E8082C1111BEF70178E9183712A912386D
:105A900038BFC900F8032C09C5A8B03765C09BFF03
:105AA0005C0529B4AD0C093C11CFC240FD53E7E1C0
:105AB00037F1A77D360CC413FC740519C0AC0D4E2C
:105AC000C5E6FA42E6423874A7A53530092C05E14F
:105AD000C78EF88C0529CC2C0532C963F72804AC95
